:10000000000000308A004828FF00030E8301A10091
:100010000A08A0008A010408A2007708A300780853
:10002000A4007908A5007A08A600831383120B1E8A
:100030001B288B182C28220884002308F70024088A
:10004000F8002508F9002608FA0020088A00210E89
:100050008300FF0E7F0E09008A110A122F288316D3
:1000600008110430831288068B108A110A121B288B
:10007000003083168800013086008113C03083125F
:100080008B040B168316011783128A110A12552846
:10009000A70183161F149F141F159F1107309C0082
:1000A00083131F308305831238286300552857288F
:02400E003B373E
:00000001FF
;PIC16F877A
;CRC=C6C1  CREATED="21-ago-23 23:28"
