:10000000000000308A003F280430831687008312E6
:10001000A4000030831688000811831208112415EB
:100020002408831687008312970105309700A410D7
:10003000240883168700831287100C309D00A5309A
:1000400090004830F800053892007C30831692000A
:1000500083122308F9002208F800F90CF80CF90CB7
:10006000F80CF90C78089B00F90C790C3039F70082
:100070001D08CF3977049D008A110A125028A30168
:100080006430A200FF30A40083161F149F141F15B4
:100090009F1107309C0083131F30830583120428AF
:1000A0000C1C85280C102415240883168700831245
:1000B000071D6728241524088316870083129701DB
:1000C000043097001608A1001508A0008528200814
:1000D00095022108031C210F96029608031D74281F
:1000E0001508F93C0318792883160811831208159E
:1000F0007D288316081183120811241524088316FD
:0E01000087008312970105309700502886284B
:02400E003B373E
:00000001FF
;PIC16F877A
;CRC=78FE  CREATED="21-ago-23 23:24"
