:1000000000308A0075280000D034F3316110CC2212
:100010004410E3376D10EF39203AE9366539731033
:100020003016A018A03220198A060000D434ED3210
:10003000723CA0163E10522278000B08AA008B13C7
:10004000831603178C170C1400000000831203138F
:10005000AA1B8B1703170C087F3903197328031386
:10006000AA0003170D080313AB0003170F080313AF
:10007000AC002A080C1E3A2899002B0803178D00A3
:1000800003132C0803178F0003130B08AD008B1309
:10009000831603178C170C1400000000831203133F
:1000A000AD1B8B1703170C0D0E0D7F390319732829
:1000B0000313AA0003170D080313AB0003170F085F
:1000C0000313AC002A080C1E632899002B080317A1
:1000D0008D0003132C0803178F008D0A03198F0A54
:1000E00003131D2803170313080003081F39830097
:1000F000813083169900A6309800903083129800C2
:10010000FF30A000A201A10183161F149F141F1528
:100110009F1107309C00831385018312850183168C
:100120008601831286010030A000831687018312A6
:1001300087018316880183128801831609108910AC
:1001400009118312890183160108C0390238810020
:10015000B530831290000030F80006389200F93074
:10016000831692000630831281008E010B308F00BF
:10017000DC308E0006308100043003178D00003023
:100180008F0003131D20163003178D0000308F00E1
:1001900003131D2083168801073083128800A801ED
:1001A000A7012808A6002708A5002608A4002508FE
:1001B000A3000B1DF3280B110108083EAA002A0812
:1001C0008100A30A0319A40A2308E23C031DF328B3
:1001D0002408043C031DF328A401A301831608107E
:1001E0000130831288060C1C1D290C100F08FA0020
:1001F0000E08F7000F087A02031DF6287708DC3E88
:10020000AA007A08AB000B3003180C30AB078E0144
:100210002B088F002A088E00A50A0319A60A2508B4
:10022000053C031D1D29A608031D1D29A601A501C6
:10023000831688100230831288068C1C32298C1099
:10024000A70A0319A80A2708713C031D32292808A8
:10025000023C031D3229A801A701831608110430AE
:0802600083128806D92863000F
:02400E00422F3F
:00000001FF
;PIC16F877A
;CRC=8FCD  CREATED="01-abr-15 15:00"
