:10000000000000308A005228FF00030E8301A10087
:100010000A08A0008A010408A2007708A300780853
:10002000A4007908A5007A08A600831383128B1E0A
:100030001B280B192C28220884002308F700240809
:10004000F8002508F9002608FA0020088A00210E89
:100050008300FF0E7F0E09008A110A122F288101EA
:10006000A70A2708083C031D3B28A7018316881010
:100070000230831288060B118A110A121B2883167C
:100080000108C03907388100831281018B16C03006
:100090008B040030831688008810831288148A111C
:1000A0000A125F28A70183161F149F141F159F11A2
:1000B00007309C0083131F30830583123F285F287D
:0200C0006028B6
:02400E003B373E
:00000001FF
;PIC16F877A
;CRC=F345  CREATED="11-jun-23 16:12"
