:10000000000001308A009A29003083168800C03031
:1000100083128B048A110A12A8290830F8000430D0
:10002000F700F70B11288711A0112008831687000D
:100030000330F700F70B1A288312A30D0712031CD5
:10004000272820162008831687002B2883122012C9
:1000500020088316870000008312A015200883164D
:1000600087008312871D3228F80B0F280430F70011
:10007000F70B38288711A01120088316870000008D
:10008000831220162008831687000330F700F70B31
:1000900047280330F700F70B4B288312A0152008E0
:1000A000831687008312871D5328F8010330F70059
:1000B000F70B5828071A78148711A0112008831607
:1000C00087008312071220122008831687008312EC
:1000D0000800A20120162008831687000430F700CC
:1000E000F70B70288312A0152008831687000330B1
:1000F000F700F70B792883120712201220088316C5
:1001000087000430F700F70B832883128711A011B2
:1001100020088316870041308312A3000D20013090
:10012000F7000830A4007708A500201620088316E1
:1001300087000330F700F70B9B288312A0152008D7
:10014000831687008312871DA328071A0314071E2E
:100150000310F80D0430F700F70BAC28A0112008AD
:100160008316870083128711A40B95282016200878
:10017000831687000330F700F70BBC2883120712A1
:1001800025080319C8282012200883168700831227
:100190000000A0152008831687008312871DCE2833
:1001A0000430F700F70BD2288711A011200883161E
:1001B00087000330F700F70BDB28831207122012A9
:1001C00020088316870078088312A20020122008D6
:1001D0008316870000008312A0152008831687006D
:1001E0008312871DF1280430F700F70BF528F82853
:1001F000000020162008831687000430F700F70B54
:10020000FF288312A21F07290130A2000829A2019A
:100210002208F8008A110A12A929220B5429201653
:100220002008831687000430F700F70B1529831286
:10023000A0152008831687000330F700F70B1E294E
:100240008312071220122008831687000430F7005B
:10025000F70B282983128711A01120088316870025
:1002600040308312A3000D200130A3000D20201286
:1002700020088316870000008312A015200883162B
:1002800087008312871D42290430F700F70B4629A7
:100290004929000020162008831687000430F70043
:1002A000F70B502996298312201620088316870001
:1002B0000430F700F70B5A298312A0152008831683
:1002C00087000330F700F70B63298312071220120F
:1002D0002008831687000430F700F70B6D2983127E
:1002E0008711A01120088316870040308312A300D5
:1002F0000D20A3010D202012200883168700000086
:100300008312A0152008831687008312871D862973
:100310000430F700F70B8A298D29000020162008E9
:10032000831687000430F700F70B942983128A1193
:100330000A12AE29FF30A00083161F149F141F1548
:100340009F1107309C0083131F30830583120428FC
:1003500069287808A1002108A2000D29A829AF2941
:02400E003B373E
:00000001FF
;PIC16F877A
;CRC=2561  CREATED="20-ago-23 14:55"
