:10000000000000308A00C328FF00030E8301A10016
:100010000A08A0008A010408A2007708A300780853
:10002000A4007908A5007A08A600831383128C30F7
:100030008400001C1D280C1832288B1E21280B1947
:100040003528220884002308F7002408F800250832
:10005000F9002608FA0020088A00210E8300FF0E0E
:100060007F0E09008A110A1248288A110A123828BC
:10007000A80A2808083C031D44288316881002306B
:10008000831288068101A8010B118A110A12212806
:100090008E018F018E01A90A0319AA0AAA08031D5D
:1000A000692829080A3C031C6928831688138312CF
:1000B0008813831608138312081383168812831279
:1000C000881683160614831206186928AA010F30B1
:1000D000A900AA08031D832829080E3C031C8328B5
:1000E000AA08031D772829080A3C031883288316C9
:1000F0008813831288138316081383120817831634
:10010000881283128812AA08031D9D2829082B3CF7
:10011000031C9D28AA08031D912829080E3C0318DA
:100120009D28831688138312881783160813831259
:1001300008138316881283128812AA08031DA428A4
:1001400029082B3C0318A628AA01A9010C108A1122
:100150000A1221280030831688000130860081139E
:100160000108C0390738810083128B16B530900022
:1001700083160C14C03083128B048E018F018E0104
:100180008A110A12D228A801AA01A90183161F14F4
:100190009F141F159F1107309C0083131F30830588
:0A01A0008312AA280B15D328D428D7
:02400E003B373E
:00000001FF
;PIC16F877A
;CRC=2975  CREATED="17-jun-23 22:03"
