:10000000000000308A008928FF00030E8301A10050
:100010000A08A0008A010408A2007708A300780853
:10002000A4007908A5007A08A600831383120B1E8A
:100030001B288B1838288C308400001C21280C18B1
:100040003B288C308400801C27288C183E282208EE
:1000500084002308F7002408F8002508F900260882
:10006000FA0020088A00210E8300FF0E7F0E09008F
:100070008A110A125E288A110A1241288A110A126C
:100080005328A70A8E018F018E012708053C031D06
:100090004F28A701831688100230831288060C109F
:1000A0008A110A1227289B3091008316881002308B
:1000B000831288068C108A110A12272883160811C9
:1000C0000430831288068B108A110A122728003008
:1000D00083168800013086008113B53083129000AA
:1000E0008E018F018E010030F800063892009B309F
:1000F0008316920083129100C0308B0483160C1477
:100100008C1483120B168316011783128A110A129C
:100110009628A70183161F149F141F159F110730DF
:100120009C0083131F308305831267289628972825
:02400E003B373E
:00000001FF
;PIC16F877A
;CRC=DB4F  CREATED="25-jul-23 11:13"
