:10000000000000308A00A328FF00030E8301A10036
:100010000A08A0008A010408A2007708A300780853
:10002000A4007908A5007A08A600831383128C30F7
:100030008400001C1D280C182E2822088400230888
:10004000F7002408F8002508F9002608FA0020081F
:100050008A00210E8300FF0E7F0E09008A110A120A
:1000600046282D08F8012C02031839282C08F7001F
:100070004528F7010830AE00AC0DF70D2D087702CA
:100080000318F700F80DAE0B3C2808008E018F0115
:100090008E01A80A28080A3C031CA80128080A3C6B
:1000A000031D8E28291C8E28A801A70A2708AC004A
:1000B0006430AD00312030307807AB002B080C1EC7
:1000C0005F2899002708AC006430AD003120770824
:1000D000AC000A30AD00312030307807AB002B087F
:1000E0000C1E702899002708AC006430AD00312048
:1000F0007708AC000A30AD00312030307707AB0014
:100100002B080C1E812899000D300C1E85289900A3
:100110000A300C1E89289900270886000C108A11C5
:100120000A121D288316860183128601B5309000BD
:100130008E018F018E0183160C14C03083128B0444
:100140008A110A12BB28813083169900A6309800C4
:10015000903083129800A7010830A8002914831654
:100160001F149F141F159F1107309C0083131F300D
:100170008305831292288C1EDF288C1EBD281A0846
:10018000AA002A08703C0319C9282A08503C031DFC
:10019000CB282910D3282A08633C0319D2282A081F
:1001A000433C031929142A080C1ED42899000D3049
:1001B0000C1ED82899000A300C1EDC289900BB2898
:0201C000E02835
:02400E003B373E
:00000001FF
;PIC16F877A
;CRC=E56B  CREATED="20-ago-23 15:51"
