:10000000000000308A009628FF00030E8301A10043
:100010000A08A0008A010408A2007708A300780853
:10002000A4007908A5007A08A600831383128B1E0A
:100030001B280B192C28220884002308F700240809
:10004000F8002508F9002608FA0020088A00210E89
:100050008300FF0E7F0E09008A110A123D280A1044
:100060008A100A1182073F3406345B344F346634F9
:100070006D347D3407347F346F34A80A2808083C77
:10008000031D4928831688100230831288068101D7
:10009000A8010B118A110A121B2800308316860052
:1000A000FF3087008312AD008330900083168113E8
:1000B00000308800C03083128B0483160C14831226
:1000C0008E018F018E0183160108C0390738810027
:1000D00083128B168A110A12A5282F08F8012E0206
:1000E000031875282E08F7008128F7010830B000A2
:1000F000AE0DF70D2F0877020318F700F80DB00BBF
:10010000782808002E082F20F80086000800AF018C
:100110002E082F0203188E28AF0A8828B001300855
:10012000FD3C031C9528B00A8F280800A801FF3069
:10013000AD0083161F149F141F159F1107309C00DC
:1001400083131F30830583124D280B150F08FA0007
:100150000E08F7000F087A02031DA6287708A900E9
:100160002908643C031DB7288E018F018E012908E0
:10017000AE000A30AF006D207708AA002908AE0053
:100180000A30AF006D207808AB0008152A08AE00D1
:1001900082200A30AE00872008111430AE0087207C
:1001A00088152B08AE0082200A30AE008720881107
:0401B000A628D9287C
:02400E003B373E
:00000001FF
;PIC16F877A
;CRC=8BB3  CREATED="22-jun-23 14:45"
