:10000000000000308A007B28FF00030E8301A1005E
:100010000A08A0008A010408A2007708A300780853
:10002000A4007908A5007A08A600831383128B1E0A
:100030001B280B192C28220884002308F700240809
:10004000F8002508F9002608FA0020088A00210E89
:100050008300FF0E7F0E09008A110A122F28A80ABA
:100060002808083C031D3B288316881002308312A1
:1000700088068101A8010B118A110A121B2804307D
:1000800083168700880183122D152D08831687009B
:100090008312970105309700AD102D088316870055
:1000A000831287100C309D0083160108C039073871
:1000B000810083128B16A53090004830F800053877
:1000C00092007C308316920083122C08F9002B08D2
:1000D000F800F90CF80CF90CF80CF90C78089B00F6
:1000E000F90C790C3039F7001D08CF3977049D00E1
:1000F0008A110A128D28A801AC016430AB00FF30D0
:10010000AD0083161F149F141F159F1107309C000C
:1001100083131F30830583123F280B150C1DC32842
:100120000C112D152D08831687008312071DA52895
:100130002D152D0883168700831297010430970030
:100140001608AA001508A900C328290895022A083C
:10015000031C2A0F96029608031DB2281508F93CC5
:100160000318B7288316081183120815BB288316B5
:100170000811831208112D152D088316870083128C
:0A0180009701053097008E28C4286F
:02400E003B373E
:00000001FF
;PIC16F877A
;CRC=C001  CREATED="04-jul-23 10:04"
