:10000000000000308A004828FF00030E8301A10091
:100010000A08A0008A010408A2007708A300780853
:10002000A4007908A5007A08A600831383128C30F7
:100030008400801D1D288C192E2822088400230886
:10004000F7002408F8002508F9002608FA0020081F
:100050008A00210E8300FF0E7F0E09008A110A120A
:100060003128291129088316870083120715AB014F
:100070002B08F93C031C3E28AB0A38282911290813
:1000800083168700831207118C118A110A121D280A
:10009000A701A801FF30A90083161F149F141F1584
:1000A0009F1107309C0083131F308305C0308312DB
:1000B0008B0483168C15003087008312A9009412DC
:1000C000A912290883168700831229162908831686
:1000D00087008312A9112908831687002230831212
:1000E0009400003083169400B530831290008E0186
:1000F0008F018E01291129088316870083120711A9
:100100000C1C8728A80A0C108E018F018E0128086C
:100110000A3C031D8D28A70AA8012708930083160F
:0C012000140C031C9028831280289528E2
:02400E003B373E
:00000001FF
;PIC16F877A
;CRC=7770  CREATED="20-ago-23 15:19"
