:10000000000000308A009128FF00030E8301A10048
:100010000A08A0008A010408A2007708A300780853
:10002000A4007908A5007A08A600831383128C30F7
:100030008400001C1D280C1832288B1E21280B1947
:100040003528220884002308F7002408F800250832
:10005000F9002608FA0020088A00210E8300FF0E0E
:100060007F0E09008A110A125B288A110A1246289B
:100070000A108A100A1182073F3406345B344F3469
:1000800066346D347D3407347F346F34A80A280811
:10009000083C031D522883168810023083128806FC
:1000A0008101A8010B118A110A1221282D0838207C
:1000B000F800860008008E018F018E01AA0A2A0826
:1000C000283C03186E28831686178312861B6E2819
:1000D000A90AAA012908093C031CA9012908AD00A5
:1000E00056200C108A110A122128803083168600AF
:1000F0008113FF3087008312AB0085309000831698
:100100000C14C03083128B048E018F018E01831674
:100110000108C0390738810083128B168A110A1230
:10012000A228A801A901AA01FF30AB0083161F1461
:100130009F141F159F1107309C0083131F308305E8
:10014000831275280B15A7018B1BA7178B13AD0105
:100150005620A71B8B172B142B088316870083129E
:100160000718BF288E018F018E01AA01A901A701DE
:100170008B1BA7178B13AD015620A71B8B1783165C
:1001800086178312861BCD28A7018B1BA7178B13FD
:0E0190002908AD005620A71B8B17AB28CE28E0
:02400E003B373E
:00000001FF
;PIC16F877A
;CRC=8F63  CREATED="11-jun-23 18:39"
