:10000000000000308A006928FF00030E8301A10070
:100010000A08A0008A010408A2007708A300780853
:10002000A4007908A5007A08A600831383128B1E0A
:100030001B280B192C28220884002308F700240809
:10004000F8002508F9002608FA0020088A00210E89
:100050008300FF0E7F0E09008A110A122F28A70ABB
:1000600081012708083C031D4528A70183160614B3
:100070008312061840288316081183120811452898
:10008000831608110430831288068316061483121F
:1000900006184E2883160811831208110B118A11B5
:1000A0000A121B28013083168600831286008316ED
:1000B000811388018312880183160108C03907382B
:1000C000810083128101C0308B048B168A110A12C1
:1000D0007628A70183161F149F141F159F11073040
:1000E0009C0083131F3083058312522876287728BB
:02400E003B373E
:00000001FF
;PIC16F877A
;CRC=DDEF  CREATED="17-jun-23 21:37"
